{
  "address": "0xfe06da460d49232295d0ba6f503c3482d955158c",
  "abi": [
    {
      "inputs": [],
      "stateMutability": "payable",
      "type": "constructor"
    },
    {
      "inputs": [],
      "name": "NotEnoughEther",
      "type": "error"
    },
    {
      "anonymous": false,
      "inputs": [
        {
          "indexed": true,
          "internalType": "address",
          "name": "player",
          "type": "address"
        },
        {
          "indexed": false,
          "internalType": "uint256",
          "name": "amount",
          "type": "uint256"
        },
        {
          "indexed": false,
          "internalType": "uint256",
          "name": "roll",
          "type": "uint256"
        }
      ],
      "name": "Roll",
      "type": "event"
    },
    {
      "anonymous": false,
      "inputs": [
        {
          "indexed": false,
          "internalType": "address",
          "name": "winner",
          "type": "address"
        },
        {
          "indexed": false,
          "internalType": "uint256",
          "name": "amount",
          "type": "uint256"
        }
      ],
      "name": "Winner",
      "type": "event"
    },
    {
      "inputs": [],
      "name": "nonce",
      "outputs": [
        {
          "internalType": "uint256",
          "name": "",
          "type": "uint256"
        }
      ],
      "stateMutability": "view",
      "type": "function"
    },
    {
      "inputs": [],
      "name": "prize",
      "outputs": [
        {
          "internalType": "uint256",
          "name": "",
          "type": "uint256"
        }
      ],
      "stateMutability": "view",
      "type": "function"
    },
    {
      "inputs": [],
      "name": "rollTheDice",
      "outputs": [],
      "stateMutability": "payable",
      "type": "function"
    },
    {
      "stateMutability": "payable",
      "type": "receive"
    }
  ],
  "contractName": "DiceGame",
  "sourceName": "contracts/DiceGame.sol",
  "bytecode": "0x60806040525f80805560015560116015565b6073565b6064602047600a602d565b602891906055565b600155565b8082028115828204841417604f57634e487b7160e01b5f52601160045260245ffd5b92915050565b5f82606e57634e487b7160e01b5f52601260045260245ffd5b500490565b6104a6806100805f395ff3fe608060405260043610610036575f3560e01c80637d789dee14610041578063affed0e01461004b578063e3ac5d2614610071575f5ffd5b3661003d57005b5f5ffd5b610049610086565b005b348015610056575f5ffd5b5061005f5f5481565b60405190815260200160405180910390f35b34801561007c575f5ffd5b5061005f60015481565b66071afd498d00003410156100ae57604051638a0d377960e01b815260040160405180910390fd5b5f6100ba600143610378565b4090505f81305f546040516020016100f79392919092835260609190911b6bffffffffffffffffffffffff19166020830152603482015260540190565b60408051601f19818403018152919052805160209091012090505f61011d6010836103a5565b905061016d604051806040016040528060018152602001600960f81b815250604051806040016040528060128152602001711010102234b1b29023b0b6b2902937b6361d60711b815250836102d1565b5f8054908061017b836103b8565b909155506064905061018e3460286103d0565b61019891906103e7565b60015f8282546101a891906103fa565b9091555050604080513481526020810183905233917f61cfee61b80d296eb67d23740a2278ba7f3d857fe9aa27f1ed9fe4882e254360910160405180910390a260058111156101f657505050565b6001546040515f90339083908381818185875af1925050503d805f8114610238576040519150601f19603f3d011682016040523d82523d5f602084013e61023d565b606091505b50509050806102895760405162461bcd60e51b81526020600482015260146024820152732330b4b632b2103a379039b2b7321022ba3432b960611b604482015260640160405180910390fd5b61029161031d565b60408051338152602081018490527f9c2270628a9b29d30ae96b6c4c14ed646ee134febdce38a5b77f2bde9cea2e20910160405180910390a15050505050565b6103188383836040516024016102e99392919061043b565b60408051601f198184030181529190526020810180516001600160e01b0316635821efa160e01b179052610339565b505050565b606461032a47600a6103d0565b61033491906103e7565b600155565b61034281610345565b50565b5f6a636f6e736f6c652e6c6f6790505f5f835160208501845afa505050565b634e487b7160e01b5f52601160045260245ffd5b8181038181111561038b5761038b610364565b92915050565b634e487b7160e01b5f52601260045260245ffd5b5f826103b3576103b3610391565b500690565b5f600182016103c9576103c9610364565b5060010190565b808202811582820484141761038b5761038b610364565b5f826103f5576103f5610391565b500490565b8082018082111561038b5761038b610364565b5f81518084528060208401602086015e5f602082860101526020601f19601f83011685010191505092915050565b606081525f61044d606083018661040d565b828103602084015261045f818661040d565b91505082604083015294935050505056fea2646970667358221220097aeee3a58df760fb5fd68a8897c57a4ae816f4ab7e9d03b3444e5690293f2a64736f6c634300081e0033",
  "linkReferences": {},
  "deployedLinkReferences": {},
  "immutableReferences": {},
  "inputSourceName": "project/contracts/DiceGame.sol",
  "devdoc": {
    "kind": "dev",
    "methods": {},
    "version": 1
  },
  "evm": {
    "gasEstimates": {
      "creation": {
        "codeDepositCost": "238000",
        "executionCost": "32560",
        "totalCost": "270560"
      },
      "external": {
        "nonce()": "2281",
        "prize()": "2304",
        "rollTheDice()": "infinite"
      },
      "internal": {
        "resetPrize()": "22267"
      }
    }
  },
  "storageLayout": {
    "storage": [
      {
        "astId": 8272,
        "contract": "project/contracts/DiceGame.sol:DiceGame",
        "label": "nonce",
        "offset": 0,
        "slot": "0",
        "type": "t_uint256"
      },
      {
        "astId": 8275,
        "contract": "project/contracts/DiceGame.sol:DiceGame",
        "label": "prize",
        "offset": 0,
        "slot": "1",
        "type": "t_uint256"
      }
    ],
    "types": {
      "t_uint256": {
        "encoding": "inplace",
        "label": "uint256",
        "numberOfBytes": "32"
      }
    }
  },
  "userdoc": {
    "errors": {
      "NotEnoughEther()": [
        {
          "notice": "Errors //////"
        }
      ]
    },
    "events": {
      "Roll(address,uint256,uint256)": {
        "notice": "Events /////"
      }
    },
    "kind": "user",
    "methods": {
      "constructor": {
        "notice": "Constructor ///"
      },
      "nonce()": {
        "notice": "State Variables //"
      }
    },
    "version": 1
  },
  "argsData": "0x",
  "transaction": {
    "hash": "0xca93fc2f051c180fa2267e4208452543d188a78339b426a7821814112398d42f",
    "nonce": "0xf",
    "origin": "0x19cca2cf6030461c2af6cae5ee063da9493ddc10"
  }
}