{
  "address": "0x072d6d312b0257fadae60e473b071a7dc1c1cbfb",
  "abi": [
    {
      "inputs": [
        {
          "internalType": "address payable",
          "name": "diceGameAddress",
          "type": "address"
        }
      ],
      "stateMutability": "nonpayable",
      "type": "constructor"
    },
    {
      "inputs": [
        {
          "internalType": "uint256",
          "name": "required",
          "type": "uint256"
        },
        {
          "internalType": "uint256",
          "name": "available",
          "type": "uint256"
        }
      ],
      "name": "InsufficientBalance",
      "type": "error"
    },
    {
      "inputs": [
        {
          "internalType": "uint256",
          "name": "required",
          "type": "uint256"
        },
        {
          "internalType": "uint256",
          "name": "available",
          "type": "uint256"
        }
      ],
      "name": "NotEnoughETH",
      "type": "error"
    },
    {
      "inputs": [
        {
          "internalType": "uint256",
          "name": "roll",
          "type": "uint256"
        }
      ],
      "name": "NotWinningRoll",
      "type": "error"
    },
    {
      "inputs": [
        {
          "internalType": "address",
          "name": "owner",
          "type": "address"
        }
      ],
      "name": "OwnableInvalidOwner",
      "type": "error"
    },
    {
      "inputs": [
        {
          "internalType": "address",
          "name": "account",
          "type": "address"
        }
      ],
      "name": "OwnableUnauthorizedAccount",
      "type": "error"
    },
    {
      "anonymous": false,
      "inputs": [
        {
          "indexed": true,
          "internalType": "address",
          "name": "previousOwner",
          "type": "address"
        },
        {
          "indexed": true,
          "internalType": "address",
          "name": "newOwner",
          "type": "address"
        }
      ],
      "name": "OwnershipTransferred",
      "type": "event"
    },
    {
      "inputs": [],
      "name": "diceGame",
      "outputs": [
        {
          "internalType": "contract DiceGame",
          "name": "",
          "type": "address"
        }
      ],
      "stateMutability": "view",
      "type": "function"
    },
    {
      "inputs": [],
      "name": "owner",
      "outputs": [
        {
          "internalType": "address",
          "name": "",
          "type": "address"
        }
      ],
      "stateMutability": "view",
      "type": "function"
    },
    {
      "inputs": [],
      "name": "renounceOwnership",
      "outputs": [],
      "stateMutability": "nonpayable",
      "type": "function"
    },
    {
      "inputs": [],
      "name": "riggedRoll",
      "outputs": [],
      "stateMutability": "nonpayable",
      "type": "function"
    },
    {
      "inputs": [
        {
          "internalType": "address",
          "name": "newOwner",
          "type": "address"
        }
      ],
      "name": "transferOwnership",
      "outputs": [],
      "stateMutability": "nonpayable",
      "type": "function"
    },
    {
      "inputs": [
        {
          "internalType": "address",
          "name": "_to",
          "type": "address"
        },
        {
          "internalType": "uint256",
          "name": "_amount",
          "type": "uint256"
        }
      ],
      "name": "withdraw",
      "outputs": [],
      "stateMutability": "nonpayable",
      "type": "function"
    },
    {
      "stateMutability": "payable",
      "type": "receive"
    }
  ],
  "contractName": "RiggedRoll",
  "sourceName": "contracts/RiggedRoll.sol",
  "bytecode": "0x608060405234801561000f575f5ffd5b5060405161066338038061066383398101604081905261002e916100d1565b338061005357604051631e4fbdf760e01b81525f600482015260240160405180910390fd5b61005c81610082565b50600180546001600160a01b0319166001600160a01b03929092169190911790556100fe565b5f80546001600160a01b038381166001600160a01b0319831681178455604051919092169283917f8be0079c531659141344cd1fd0a4f28419497f9722a3daafe3b4186f6b6457e09190a35050565b5f602082840312156100e1575f5ffd5b81516001600160a01b03811681146100f7575f5ffd5b9392505050565b6105588061010b5f395ff3fe608060405260043610610057575f3560e01c80636b5e97f814610062578063715018a6146100785780638da5cb5b1461008c5780638e288fd1146100c0578063f2fde38b146100df578063f3fef3a3146100fe575f5ffd5b3661005e57005b5f5ffd5b34801561006d575f5ffd5b5061007661011d565b005b348015610083575f5ffd5b506100766102c9565b348015610097575f5ffd5b505f546001600160a01b03165b6040516001600160a01b03909116815260200160405180910390f35b3480156100cb575f5ffd5b506001546100a4906001600160a01b031681565b3480156100ea575f5ffd5b506100766100f936600461047f565b6102dc565b348015610109575f5ffd5b5061007661011836600461049f565b610319565b66071afd498d00004781811015610156576040516317b1a39360e31b815260048101839052602481018290526044015b60405180910390fd5b5f6101626001436104c7565b4090505f60015f9054906101000a90046001600160a01b03166001600160a01b031663affed0e06040518163ffffffff1660e01b8152600401602060405180830381865afa1580156101b6573d5f5f3e3d5ffd5b505050506040513d601f19601f820116820180604052508101906101da91906104ec565b600154604080516020810186905260609290921b6bffffffffffffffffffffffff191690820152605481018290529091505f9060740160408051601f19818403018152919052805160209091012090505f610236601083610503565b9050600581111561025d57604051639cb39a2160e01b81526004810182905260240161014d565b60015f9054906101000a90046001600160a01b03166001600160a01b0316637d789dee876040518263ffffffff1660e01b81526004015f604051808303818588803b1580156102aa575f5ffd5b505af11580156102bc573d5f5f3e3d5ffd5b5050505050505050505050565b6102d16103e9565b6102da5f610415565b565b6102e46103e9565b6001600160a01b03811661030d57604051631e4fbdf760e01b81525f600482015260240161014d565b61031681610415565b50565b6103216103e9565b478181101561034d5760405163cf47918160e01b8152600481018390526024810182905260440161014d565b5f836001600160a01b0316836040515f6040518083038185875af1925050503d805f8114610396576040519150601f19603f3d011682016040523d82523d5f602084013e61039b565b606091505b50509050806103e35760405162461bcd60e51b81526020600482015260146024820152732330b4b632b2103a379039b2b7321022ba3432b960611b604482015260640161014d565b50505050565b5f546001600160a01b031633146102da5760405163118cdaa760e01b815233600482015260240161014d565b5f80546001600160a01b038381166001600160a01b0319831681178455604051919092169283917f8be0079c531659141344cd1fd0a4f28419497f9722a3daafe3b4186f6b6457e09190a35050565b80356001600160a01b038116811461047a575f5ffd5b919050565b5f6020828403121561048f575f5ffd5b61049882610464565b9392505050565b5f5f604083850312156104b0575f5ffd5b6104b983610464565b946020939093013593505050565b818103818111156104e657634e487b7160e01b5f52601160045260245ffd5b92915050565b5f602082840312156104fc575f5ffd5b5051919050565b5f8261051d57634e487b7160e01b5f52601260045260245ffd5b50069056fea2646970667358221220fdb883153b9257b7f3e9e181454c1643fa616d7c267c7884286c7c6a8b0a67f364736f6c634300081e0033",
  "linkReferences": {},
  "deployedLinkReferences": {},
  "immutableReferences": {},
  "inputSourceName": "project/contracts/RiggedRoll.sol",
  "devdoc": {
    "errors": {
      "OwnableInvalidOwner(address)": [
        {
          "details": "The owner is not a valid owner account. (eg. `address(0)`)"
        }
      ],
      "OwnableUnauthorizedAccount(address)": [
        {
          "details": "The caller account is not authorized to perform an operation."
        }
      ]
    },
    "kind": "dev",
    "methods": {
      "owner()": {
        "details": "Returns the address of the current owner."
      },
      "renounceOwnership()": {
        "details": "Leaves the contract without owner. It will not be possible to call `onlyOwner` functions. Can only be called by the current owner. NOTE: Renouncing ownership will leave the contract without an owner, thereby disabling any functionality that is only available to the owner."
      },
      "transferOwnership(address)": {
        "details": "Transfers ownership of the contract to a new account (`newOwner`). Can only be called by the current owner."
      }
    },
    "version": 1
  },
  "evm": {
    "gasEstimates": {
      "creation": {
        "codeDepositCost": "273600",
        "executionCost": "infinite",
        "totalCost": "infinite"
      },
      "external": {
        "diceGame()": "2368",
        "owner()": "2328",
        "renounceOwnership()": "infinite",
        "riggedRoll()": "infinite",
        "transferOwnership(address)": "28395",
        "withdraw(address,uint256)": "infinite"
      }
    }
  },
  "storageLayout": {
    "storage": [
      {
        "astId": 8,
        "contract": "project/contracts/RiggedRoll.sol:RiggedRoll",
        "label": "_owner",
        "offset": 0,
        "slot": "0",
        "type": "t_address"
      },
      {
        "astId": 8459,
        "contract": "project/contracts/RiggedRoll.sol:RiggedRoll",
        "label": "diceGame",
        "offset": 0,
        "slot": "1",
        "type": "t_contract(DiceGame)8431"
      }
    ],
    "types": {
      "t_address": {
        "encoding": "inplace",
        "label": "address",
        "numberOfBytes": "20"
      },
      "t_contract(DiceGame)8431": {
        "encoding": "inplace",
        "label": "contract DiceGame",
        "numberOfBytes": "20"
      }
    }
  },
  "userdoc": {
    "errors": {
      "NotEnoughETH(uint256,uint256)": [
        {
          "notice": "Errors //////"
        }
      ]
    },
    "kind": "user",
    "methods": {
      "constructor": {
        "notice": "Constructor ///"
      },
      "diceGame()": {
        "notice": "State Variables //"
      }
    },
    "version": 1
  },
  "argsData": "0x000000000000000000000000fe06da460d49232295d0ba6f503c3482d955158c",
  "transaction": {
    "hash": "0x860a667a4fc3facf7006c6084335ffc26bf111c68daea2c2f1734fc0377cb7ea",
    "nonce": "0x11",
    "origin": "0x19cca2cf6030461c2af6cae5ee063da9493ddc10"
  }
}